:10000000C04C00204D060100B97F0000BD7F0000FC
:10001000A70A0A010002000004180FAC0065BC002A
:1000200000000000000000000000000000000000D0
:10003000000000001CDD02000000000000000000C5
:100040000000000000000000FFFFFFFFFFFFFFFFB8
:10005000FFFFFFFF00700700000000000000080025
:10006000FFFFFFFFFFFFFFFF280000000000000070
:100070000000000000000000000000000000000080
:10008000A8820020A4760020A4760020A476002078
:10009000C04C0020480C0300C4D90200604300207B
:1000A0002443002000000800A8820020FFFFFFFF7B
:1000B000FFFFFFFFFFFFFFFFFFFFFFFFFFFFFFFF50
:1000C000FFFFFFFFFFFFFFFFFFFFFFFFFFFFFFFF40
:1000D000FFFFFFFFFFFFFFFFFFFFFFFFFFFFFFFF30
:1000E000FFFFFFFFFFFFFFFFFFFFFFFFFFFFFFFF20
:1000F000FFFFFFFFFFFFFFFFFFFFFFFFFFFFFFFF10
:10010000FFFFFFFFFFFFFFFFFFFFFFFFFFFFFFFFFF
:10011000FFFFFFFFFFFFFFFFFFFFFFFFFFFFFFFFEF
:10012000FFFFFFFFFFFFFFFFFFFFFFFFFFFFFFFFDF
:10013000FFFFFFFFFFFFFFFFFFFFFFFFFFFFFFFFCF
:10014000FFFFFFFFFFFFFFFFFFFFFFFFFFFFFFFFBF
:10015000FFFFFFFFFFFFFFFFFFFFFFFFFFFFFFFFAF
:10016000FFFFFFFFFFFFFFFFFFFFFFFFFFFFFFFF9F
:10017000FFFFFFFFFFFFFFFFFFFFFFFFFFFFFFFF8F
:10018000FFFFFFFFFFFFFFFFFFFFFFFFFFFFFFFF7F
:10019000FFFFFFFFFFFFFFFFFFFFFFFFFFFFFFFF6F
:1001A000FFFFFFFFFFFFFFFFFFFFFFFFFFFFFFFF5F
:1001B000FFFFFFFFFFFFFFFFFFFFFFFFFFFFFFFF4F
:1001C000FFFFFFFFFFFFFFFFFFFFFFFFFFFFFFFF3F
:1001D000FFFFFFFFFFFFFFFFFFFFFFFFFFFFFFFF2F
:1001E000FFFFFFFFFFFFFFFFFFFFFFFFFFFFFFFF1F
:1001F000FFFFFFFFFFFFFFFFFFFFFFFFFFFFFFFF0F
:10020000C04C00204D060100B97F0000BD7F0000FA
:10021000C57F0000C17F0000C97F000049060100C2
:10022000490601004906010049060100490601008E
:10023000CD7F000049060100490601004906010082
:10024000E528000059010100E98300003C8100001D
:100250001DFC0000C5010100650101007D010100D8
:100260005D01010019200000ED200000D53A0000DA
:10027000BD9300003C8100003C8100002904000087
:10028000490601003C810000112100003C81000072
:100290003C8100003C8100003C8100003C8100006A
:1002A0003C8100003C8100003C8100003C8100005A
:1002B000C90101006101010025EA00006926000072
:1002C000090201003C81000011BB00003C810000DC
:1002D0003C8100003C8100003C8100003C8100002A
:1002E0003C81000049060100490601003C810000F4
:1002F0003C8100003C81000049060100F8B500BFC8
:10030000F8BC08BC9E467047F8B500BFF8BC08BCF6
:100310009E46704710B5054C237833B9044B13B192
:100320000448AFF300800123237010BD3052002039
:1003300000000000D006030008B5034B1BB10349C1
:100340000348AFF3008008BD0000000034520020D5
:10035000D0060300154B002B08BF134B9D46A3F599
:10036000803A00218B460F461348144A121A2CF08B
:100370008AFE0F4B002B00D098470E4B002B00D06D
:1003800098470020002104000D000D48002802D0ED
:100390000C48AFF300802CF047FE2000290027F026
:1003A000BFF92CF02DFE00BF00000800C04C00205B
:1003B000000000000000000030520020A476002061
:1003C000000000000000000070B5134C8A00A31864
:1003D00022449B781D09062D98BF104E03F00F0391
:1003E00094BF755DFF25062B05719ABF0C4DEB5C24
:1003F000FF234371FF3B18BF01238371D37014F8AF
:100400002130084C4370537883700146204603F036
:10041000D7FB0123A36070BD4C52002003DC020017
:10042000FCDB0200002000407FB522492248002268
:10043000FF23CDE901228DF8093003784C6C8D6BD8
:1004400003922C40E407DBB228D5022B26D88C6C13
:100450001A4901EB8301A5B2CE78194906B32604E7
:100460001ED521F813201749012202FA03F30A7856
:100470001343154A0B701378CBB100231478DC407A
:10048000E407D9B20FD501701078012404FA03F300
:100490004340DBB201A81370FFF796FF04B070BDB4
:1004A00021F81350DFE70133032BE7D1F6E70323ED
:1004B0000370F3E700200040585200204C52002007
:1004C0005C5200205A5200205952002001207047EF
:1004D00001207047012814BF02200020704701202E
:1004E000704710B5044608F05DF92040BDE81040A3
:1004F00010F03CB908B5064B1B68DB0305D400F0CF
:1005000099FF80F00100C0B208BD0120FCE700BFE8
:10051000C84C002073B50F4C23780646ABB10E4B88
:100520001D6800210D4B0E481A68FFF7E3FF237882
:1005300083F001032370002300930122094B294615
:1005400030460AF00BFE02B070BD074B1978074B1E
:100550001D68E7E79B5200209C520020B05200200B
:10056000A45200201505000098520020A05200203F
:10057000074B1B685B0509D441B103780133DBB23B
:10058000994203709EBF034B01221A70704700BF4F
:10059000C84C002063520020014B1868704700BF10
:1005A000C84C002008B500F093FA80F00100C0B2FA
:1005B00008BD00F08BBA000010B5044610F08000B2
:1005C00003D0012016F0F0FE01E06206FAD414F028
:1005D000020003D0012016F017FD01E0E307FAD472
:1005E000E1060FD500F0C4FF02060BD5174B1B79AF
:1005F000DB0707D5164B012118680AF0D9FD08B9A9
:1006000044F48074610708D514F0200F4FF0010105
:1006100014BF232022202BF00DFF22070AD514F04F
:10062000200F4FF0010114BF25202420BDE8104009
:100630002BF000BFE30507D514F0200F4FF00101A8
:1006400014BF27202620F1E710BD00BFD85200209C
:10065000E4720020C3070A4604D5044B1B780BB193
:1006600040F0020001460248FFF744BF63520020F9
:10067000D85200200A4601460148FFF73BBF00BFA1
:10068000CC520020F8B51C4C237805464BB91B48CA
:1006900000F044FE1A4800F047FE00F013FB01236F
:1006A000237000F065FF174E2E4004461FD1164FF1
:1006B0003A6825EA0202D10307D531463046FFF7F2
:1006C000C9FF31463046FFF7D5FFAA054CBF44F0BD
:1006D000800024F080006B044CBF40F4007020F4D4
:1006E000007000F027FF20B13D600020F8BD02201F
:1006F000FCE70120FAE700BF62520020E30400009B
:10070000B9050000004000F8C84C002008B50648B4
:100710000AF030FD05480AF02DFD00210846BDE82D
:100720000840FFF7A7BF00BF80520020685200209A
:1007300010B5044600F01CFF3CB140F4806000F0AE
:10074000F9FE80F00100C0B210BD20F48060F6E731
:1007500008B500F00DFFC0F3802008BD074B10B5B1
:100760001C68FFF7F5FF30B1630305D414F4006F84
:100770000CBF0120032010BD0020FCE7C84C002066
:10078000054B10B51C68FFF7E3FF20B1034B1C427B
:100790000CBF0120032010BDC84C00200008080039
:1007A00037B505460C46FFF7D3FF08B9002475E0BE
:1007B0006B1E2B2BFAD801A252F823F06D08000013
:1007C00005090000A3080000C1080000AD070000F3
:1007D000C1080000C108000005090000050900006B
:1007E00027090000AD070000AD070000AD070000BD
:1007F000AD070000AD070000AD070000AD07000029
:10080000AD070000AD070000AD070000AD07000018
:10081000AD070000AD070000AD070000AD07000008
:10082000AD070000AD070000AD070000AD070000F8
:10083000AD070000AD070000AD0700002B09000068
:100840005B0900007B09000081090000AD07000082
:10085000E5090000E5090000AD070000910900006E
:10086000B1090000110A0000110A0000002C9DD0FF
:10087000FFF774FF0021FFF7FDFE68480AF07AFCDD
:1008800067480AF080FC044600288FD10090654B31
:100890006348012242F210710AF060FC204603B066
:1008A00030BD002C82D0FFF76BFF0446FFF756FFE8
:1008B000A0423FF47BAF00212046FFF7DBFE75E747
:1008C000594D2B689B041DD555480AF053FC2B68E5
:1008D00013F4805F4FF000010CBF01200320FFF7ED
:1008E000C9FE4E482D680AF04EFC044600287FF4ED
:1008F0005DAFEDB24FF47A7100904A4B4748012248
:100900006943C9E7003418BF012445480AF032FCA6
:1009100042480AF02FFC002C7FF448AF21462046C5
:10092000FFF7A8FEBAE70024EFE73F4B1B6803F48C
:100930004032B2F5403F6ED0B2F5003F7FF436AFA3
:10094000002C3FF433AF13F4806F21460CBF11200D
:100950001320FFF77FFE0124A0E7334B1B6814B17F
:10096000002BBFF623AF13F4806F4FF000010CBFD4
:1009700001200320FFF76EFE18E72B4B1B68F2E700
:10098000002C7FF413AF21462046FFF763FE85E776
:1009900000210846FFF75EFE244B1A78002A3FF438
:1009A00005AF234A00201070224A18701070FDE62F
:1009B00014F0FF0407D01C4B1B6803F08023B3F135
:1009C000004F3FF4F3AE00210846FFF743FE002C32
:1009D0007FF4ECAE144B17481968C1F34161FFF77F
:1009E000C7FD5BE700210846FFF734FE002C3FF40B
:1009F000DDAE0D4B262D1C6804D1C4F302510C480A
:100A0000FFF7B6FDC4F341610A48FFF7B1FDCDE63B
:100A100000210846AEE7022440E700BF68520020EC
:100A2000805200200D070000C84C002063520020B7
:100A30006452002065520020004870479852002000
:100A4000642A38B52BD8174C174DA37062702070EC
:100A5000164C2160164900240C7012FB03F101EBC7
:100A600081012960C2F164014B43124903EB830306
:100A70000B6002B148B9002211460F48FFF73AFD5A
:100A80000E480AF077FB002038BD642A224601D1C7
:100A90000146F2E721460948FFF73CFDF3E7022053
:100AA000F2E700BF98520020A0520020B052002070
:100AB0009B5200209C520020A4520020B4520020DF
:100AC0000120704770477047002070470020704732
:100AD00000207047014B1B68184700BFE8520020F8
:100AE000014B1B68184700BFE452002048B18278D0
:100AF00001239340034A11B1C2F820347047C2F871
:100B00002434704700A00040F7B51746044610B3E0
:100B1000827811B30026057C417800783346CDE910
:100B2000006604F01DF907B13E70A168A07801F0DD
:100B3000CFFAE37820786178A278C5F34006C5F350
:100B4000800513B133462E461D460123CDE90063CF
:100B50002B4604F005F903B0F0BD012303FA02F2BD
:100B6000044BD3F8281421EA0201C3F82814C3F86F
:100B70002424F0E700A0004030B598B14378057810
:100B8000C07801229A400C24302313FB054303F163
:100B9000804303F5204388420CBF03F1C06303F197
:100BA00080631A6030BD90B101781C22302313FBA2
:100BB000012303F184434278C17803F5851302EBE6
:100BC000C3039B001B68002B08BF81F0010108468E
:100BD000704738B50B46044668B30D7900F10C0236
:100BE000D1E9000182E803001B791A0705F001052D
:100BF0001CD5E378002B14BF0623082320786371EB
:100C00000C22302313FB00236178627903F18443C3
:100C100003F5851301EBC3039B001B6804F0ECF89C
:100C200029462046BDE83840FFF7A6BFDB064CBF8B
:100C300004230223E2E738BD90B101780C2230236F
:100C400013FB012303F184434278C17803F5851334
:100C500002EBC3039B001B68002B08BF81F001015E
:100C60000846704770B50E46054603F01FFC044663
:100C70003046A8472046BDE8704003F01BBC00008A
:100C8000054B10B58360044600F032FC10B1034BF5
:100C9000E2681A6010BD00BFD50A0000E8520020CB
:100CA00000F002BC054B10B58360044600F014FC54
:100CB00010B1034BE2681A6010BD00BFE10A0000EA
:100CC000E452002008B5104800F022FB00F056FC6A
:100CD0000E48012103F05EF8122003F00DFC60B114
:100CE00001F0E8F90A48FFF7CBFF0A48FFF7D8FF01
:100CF0000948BDE80840FFF7D5BF0A2003F0FCFB18
:100D00000028EDD1EEE700BF0CDC020000350A0040
:100D1000F44C0020E04C0020CC4C0020014B1B6820
:100D20005B691847F8520020014B1B681B69184784
:100D3000F8520020024B1B6800229B68114618479E
:100D4000F8520020136870B504460E46154613B1DC
:100D50000868FFF7EFFF044B34601B682946204604
:100D6000DB68BDE870401847F852002070B5094CA8
:100D70002268054662B1084B00211868FFF7D4FFCE
:100D800008B145F0200523682846BDE870401847A3
:100D900070BD00BFFC5200201453002010B5124C4F
:100DA000A3685A0510D5114B01211868FFF7BCFF45
:100DB00028B10F4B01211868FFF7B0FF20B9802040
:100DC000BDE81040FFF7D2BFA3689B0506D5094BCD
:100DD00000211868FFF7A2FF0028F0D163796FF3B4
:100DE000410363714020EBE7EC5200201C530020CC
:100DF0000C530020205300202DE9F0477F4DDFF8F1
:100E000034827F4C2F7998F8042023687D4E1B692B
:100E10003068FFB2120707F081096ED500219847AC
:100E2000014623683068002966D15B689847764B95
:100E30001B68B9F1000F40F0A280236830681B697D
:100E40000021984700282CD1704A236810681B683D
:100E5000002198476E486F4B6F4A4FF4006104279A
:100E600007601960236810689B6800221146984744
:100E700098F80430190705D5236830689B6800226C
:100E800011469847AB685A052BD413F400735DD113
:100E90006A7963F341026A714020BDE8F047FFF7C9
:100EA00065BF6B795D4F980742BF6B796FF3410364
:100EB0006B713B6847BF4FF02C0A4FF00C094FF0A5
:100EC000240A4FF00409002BBED0554B00211868AE
:100ED000FFF72AFF3B68002814BF50464846984752
:100EE000B2E730680121FFF71FFF00283ED18020C4
:100EF000BDE8F047FFF73ABF1B69B9F1000F9FD07B
:100F00000021984718B96B7943F002036B71DFF841
:100F100008912368D9F800005B680021984723688E
:100F2000D9F800009B683F4A0121984707F0020169
:100F3000FF072BD523681B68002950D03A493B4A4C
:100F40004FF400600860042111602DE0384B00214F
:100F50001868FFF7E3FE0028C9D16B7960F34103FD
:100F60006B714020BDE8F047FFF700BF2A4B01211D
:100F70001868FFF7D3FE0028B9D0AB6885E717F0F3
:100F800004023068216832D00B69B9E798F8042070
:100F9000236810071B68CFD5214A003118BF0121F3
:100FA0001068984723681B68184A01211068984701
:100FB0002F686FB1BB6808203BB13A79120704D59E
:100FC0003A7902F0F7023A7198473F68002FF1D161
:100FD0002368D9F800005B680121984752E712495D
:100FE0000B4A4FF40060086004211160DCE7002B1D
:100FF000CAD08B680121984744E700BFEC5200201B
:10100000F85200201C530020AC0914421853002051
:10101000FCA000443CA000440C530020FC520020E3
:1010200014530020105300203CA00046FCA00046B2
:1010300020530020184D002070B50579046806463D
:10104000E80709D42379D90706D5A36823B1227903
:10105000520601D540209847B368A3602379AB427C
:1010600024D025712279124BD2B2002019461D6876
:1010700035B9B0B92379A3B10B6823600C6010E0D7
:10108000AC4204D1207900F0FF0520B101201B689B
:101090001D792A43EBE7206818602560186800284E
:1010A000F4D10A71BDE87040FFF7A6BE70BD00BF65
:1010B000EC5200202DE9F047854C864E23683068BD
:1010C0009B68854D002211469847844B1B681BB1D5
:1010D000A86800F00F009847DFF830822F7998F861
:1010E0000420236830681B69FFB2120707F08109EA
:1010F0006ED500219847014623683068002966D1E3
:101100005B689847764B1B68B9F1000F40F0A280EE
:10111000236830681B690021984700282CD1714A48
:10112000236810681B68002198476F486F4B704A0E
:101130004FF40061042707601960236810689B68FA
:1011400000221146984798F80430190705D52368FE
:1011500030689B68002211469847AB685A052BD42B
:1011600013F400735DD16A7963F341026A71402020
:10117000BDE8F047FFF7FABD6B795E4F980742BFB5
:101180006B796FF341036B713B6847BF4FF02C0ADB
:101190004FF00C094FF0240A4FF00409002BBED089
:1011A000554B00211868FFF7BFFD3B68002814BFAE
:1011B000504648469847B2E730680121FFF7B4FD32
:1011C00000283ED18020BDE8F047FFF7CFBD1B6966
:1011D000B9F1000F9FD00021984718B96B7943F0FF
:1011E00002036B71DFF808912368D9F800005B688F
:1011F000002198472368D9F800009B683F4A0121E5
:10120000984707F00201FF072BD523681B680029C8
:1012100050D03B493B4A4FF4006008600421116004
:101220002DE0394B00211868FFF778FD0028C9D15F
:101230006B7960F341036B714020BDE8F047FFF725
:1012400095BD2B4B01211868FFF768FD0028B9D028
:10125000AB6885E717F004023068216832D00B696B
:10126000B9E798F80420236810071B68CFD5224AF5
:10127000003118BF01211068984723681B68194A7C
:101280000121106898472F686FB1BB6808203BB1F7
:101290003A79120704D53A7902F0F7023A71984781
:1012A0003F68002FF1D12368D9F800005B68012165
:1012B000984752E712490C4A4FF400600860042135
:1012C0001160DCE7002BCAD08B680121984744E706
:1012D000F85200201C530020EC5200200053002044
:1012E000AC09144218530020FCA000443CA0004468
:1012F0000C530020FC5200201453002010530020F7
:101300003CA00046FCA0004620530020184D0020C1
:10131000014B1860704700BFF8520020014B186065
:10132000704700BF00530020014B1860704700BF9A
:10133000FC5200202DE9F0412E4C6579C5F3800563
:10134000002D36D163792C4E43F0040329463068D2
:101350006371FFF7E9FC3746002836D0274B294652
:101360001868FFF7DBFC264B1A78824205461CD032
:101370001870FFF713FD002D266814BF4FF01008FA
:101380004FF02008BEB985B91020FFF7EFFCA36825
:101390005A060AD51B4E3868336829461B68984799
:1013A000336838681B680121984763796FF38203BB
:1013B0006371BDE8F081B3682BB1327912EA080F8E
:1013C00001D0404698473668DCE70F4B0F4A196852
:1013D0009142EAD11B791B07E7D53068FFF7AAFCD9
:1013E0000B4B1B681BB1A06800F00F009847FFF77C
:1013F00003FDDAE7EC5200201C5300200C530020C0
:1014000010530020F8520020184D00201514000041
:101410000053002008B5054B054A1B6810685B683F
:1014200000219847BDE80840FFF784BFF85200202C
:101430000C5300201FB5094B1B6863B140B10190EC
:101440008DF80810184601A90392FFF70BFC012044
:1014500005B05DF804FB1846FAE700BF24530020EE
:101460000E4A38B59368156813F480641EBF0C4BA0
:101470000C4919604DB97CB9094B01201C60FFF77C
:1014800075FCFFF78BFC012038BD00222846114671
:10149000FFF7D0FF2D68EDE70220F0E7EC520020C7
:1014A000245300203910000008B50849084A89680B
:1014B0001379C9054CBF43F0080323F008031371E7
:1014C0000449034AFFF73EFC012008BDEC5200200E
:1014D000104D00201453002008B5034A0349FFF7BC
:1014E00031FC012008BD00BF084D00200C53002036
:1014F00008B50B490B4A89681379C9064CBF43F0FC
:10150000080323F0080313710749064AFFF71AFC82
:10151000064B074A1A60FFF7A3FF012008BD00BF72
:10152000EC520020184D00201C53002004530020D2
:10153000611400000B4B10B59C6898604440A205F4
:1015400005D5094B1B680BB9002010BD98476305F2
:1015500006D5064B1B68002BF6D098470120F4E710
:101560000120F2E7EC520020085300200453002031
:10157000014B9868704700BFEC52002008B514205A
:10158000FFF7A2FA40F20F40BDE80840FFF7D2BFD4
:1015900010B5104C1049A161032321660F49102298
:1015A000C4E904330E4BE361C4E9191200230D4969
:1015B000A362E01D6362E3622367E36663672262FE
:1015C0002BF097FD084920462BF093FD2023A371B3
:1015D00010BD00BF0070002024DC02002853002052
:1015E000385300202DDC020031DC02002DE9F84FD9
:1015F0001F4B16461A7881468A4698460AB9FFF765
:10160000C7FF182707FB09873D6FD7F86CB05D450A
:101610002BD9BC6E796E641BB44228BF3446294472
:10162000504622462BF024FDBB6E2544A244361BB7
:10163000AB4208BF0025ABEB050B5E4528BF5E46FD
:1016400056B1182303FB09833246596E504629448C
:101650002BF00EFD3444354424B1182303FB0988D4
:10166000C8F870502046BDE8F88F0024E3E700BFBB
:1016700000700020F8B504460E46174602F025FF1C
:101680003A46054631462046FFF7B0FF0446284655
:1016900002F021FF2046F8BD2DE9F843124D1E4609
:1016A0002B788146884617460BB9FFF771FF02F089
:1016B0000CFF696900244FF0180C0CFB04535A6EA0
:1016C0002AB10134A142F8DC4FF0FF3407E0A14217
:1016D000FADDC3E918989F661A67DA665E6702F05A
:1016E000FAFE2046BDE8F88300700020FFF750BFE7
:1016F000012270B51146042002F020FD1A4B1B4D4B
:101700001A681B4842F001021A60DA684FF0604420
:1017100042F08072DA60174BC4F8B03F0026022313
:10172000C4F8006EC4F8806EC5F8F03002F012FC08
:1017300000F5D520104B114A00F2FC40B0FBF3F04D
:101740000F4B01382861C4F8406E1A600D4BC4F885
:10175000803E4FF48073C5F80433D4F8003E43F460
:101760008073C4F8003E70BDF0ED00E0000004E0BE
:1017700006000E0055CEACC5F8590D00FF03004021
:10178000001000E00D00010010B50121104802F02A
:1017900001FB104B01241C60002003F0D5FA234606
:1017A00004220221052003F027FB204625F0FEFD40
:1017B000FFF79EFF25F000FEFFF798FF234640222B
:1017C00005490648FFF768FF054B1860C00F10BDBC
:1017D00000350A00108814424853002038DC02000B
:1017E000204D0020024B1868003018BF01207047C0
:1017F000F0ED00E0054A4170D12303701378C37007
:10180000090A8170591C1170042070478853002008
:101810002DE9F84F2E4F3B681C5C032C804655D9B0
:101820000FF03DF80534DFF8ACA0E4B281464FF686
:10183000FF7B0025DAF800304BB1AC4207D90FF03E
:101840002EF8A0EB090080B2B0F5FA7F04D9601B36
:1018500018BF0120BDE8F88F9DB3012D15D13B685D
:1018600013F8085002264FF06043D3F8802ED107BA
:1018700009D5D3F8002ED20505D519460A6A002AE3
:10188000FCD083F820503546D4E7E31E6E1C9D4201
:10189000F6B202D15FFA8BF5E5E7A31E9D4202D1B5
:1018A000CBF30725DFE7631E9D420DD0A91EC9B209
:1018B000404619F005FF5946054606F013FB8346DE
:1018C000D1E75B250126CEE75D25CCE70120C1E706
:1018D000C44D0020F0ED00E010B50B4B90B040225D
:1018E00069461868FFF7C6FE58B1C1B2684619F0DC
:1018F00071FE04460146122027F0B2FE204619F080
:101900000DFD10B010BD00BF204D002070B5164673
:1019100085180AB9304470BD01F00F030A2B34BF9B
:10192000302437242344013A090905F8013DD2B295
:10193000EFE70000F0B5F9B100281CDA2D23B0F173
:10194000004F137000D04042012115E0801B8642F9
:10195000ECB205F10105F9D904B927B14D1C3034B9
:1019600054540127E9B20133092B09D130305054C6
:101970000131C8B2F0BD00210023DFF80CC01F46C2
:101980005CF823600025E2E748DC02002DE9F04F17
:1019900095B04FF0000B02AC81468A4617461D46B3
:1019A0005E46A0463B7863B902ABE41AE4B2224635
:1019B00019465046C847002840F093803444E0B2AE
:1019C00090E0252B13D0BBF1000F14D1237001340C
:1019D00012AB9C426DD3A4EB0804E4B2224641460C
:1019E0005046C84700287CD12644F6B260E0BBF1DF
:1019F000000F00D101373B78632B00F092801BD899
:101A0000392B09D8302B80F09E80002BCCD0252B91
:101A100051D04FF0000BDBE7582B00F08B80622B8E
:101A2000F7D12B6801936B6800934FF0000B009B7C
:101A30009B4543D10835ECE7702B1ED017D8642B9B
:101A400001D06C2BE5D16C2B05F1040B28686CD10F
:101A50007B78752B14BF0121002101D0642B00D1AC
:101A600001372246FFF766FF04445D46D1E7752B38
:101A7000E9D0782B5ED0732BCBD1A4EB0804E4B271
:101A8000224602A9504605F1040B2D68C84740BB09
:101A90002644F6B2C4B201302B5D002BFAD12246A7
:101AA00029465046C847E0B926445D46F6B283460B
:101AB0004446013776E723700134AAE7019B2046AC
:101AC00013F80B100222FFF721FF12AB98420446D5
:101AD0000ED3A0EB0804E4B2224641465046C84764
:101AE00018B1002015B0BDE8F08F2644F6B2444688
:101AF000009B013B5B4582BF20232370013412AB66
:101B00009C420BD3A4EB0804E4B222464146504663
:101B1000C8470028E5D12644F6B244460BF1010B34
:101B200085E72B6823700435C6E7752B0CBF0021B1
:101B3000012196E7204602222978FFF7E7FE05F10A
:101B4000040B044691E77A7802F0DF02582A19D193
:101B5000322B07F1010B09D129882F1D04222046C1
:101B6000FFF7D4FE3D4604465F4652E7342B09D1C9
:101B70002F1D2D680422290C2046FFF7C7FE0422E2
:101B8000A9B2EDE74FF0010B22E700002DE9F04F7D
:101B90009B46584B85B01B78109F9DF844A0DDF8FC
:101BA0005080064689461546002B00F09280072A91
:101BB00000F291800E9B002B00F08D800F9B002B7C
:101BC00000F08980129BB3F5006F00F38480012838
:101BD00001D1002F7FD0484B03EB05131B7B002B5B
:101BE0007BD0464C1022002168462BF04CFA04EBC7
:101BF00045141022B9F1000F5CD1494620462BF064
:101C000042FAA37843F01003A370E37843F0300363
:101C1000E370BAF1000F03D1DBB243F00303E370CA
:101C20003649129BCDF800B06A01013B885A01EB9E
:101C3000020C63F30E1088520E9BCCF808300F9BF9
:101C4000CCF804309DF84C109CF80330012E61F361
:101C500083038CF8033042D11323CCF80C309CE87A
:101C60000F000CF1100E8EE80F00DCF81C20CCF8F1
:101C700014706FF0030161F39F02B9F1010FCCF80A
:101C80001C2004D10F9BCCF81830CCF804701A49F2
:101C90002A018B1841F802800027159A5A602846BD
:101CA0009F605E732246694603F034F9384605B0FA
:101CB000BDE8F08F002120462BF0E5F91023A3703A
:101CC0000323E370BAF1000FAAD1DBB243F0300373
:101CD000A5E70B48EBE70B48E9E70B48E7E7B8F166
:101CE000000FD4D19CF8023068F304138CF8023052
:101CF000CDE700BF0C5500208C5300200C54002071
:101D0000028000F0018000F0078000F038B5104B31
:101D10001B780546BBB1C0B102F0D7FB0D490023CB
:101D200001EB0312147B3CB92B6001231373146085
:101D300002F0D1FB204638BD0133082BF0D102F070
:101D4000CAFB0548F7E70548F5E70548F3E700BF94
:101D50000C5500208C530020048000F0028000F01D
:101D6000018000F038B502F0B0FB0B4A05460023B5
:101D7000D1180C7B5CB91033802BF9D103F07EF8BD
:101D8000064B28461C7002F0A6FB204638BD2846AC
:101D900002F0A1FB0248F9E78C5300200C5500200B
:101DA000058000F00D4B1B7810B5044693B1072851
:101DB00012D802F08AFB0A4B03EB04131A7B2AB1F8
:101DC00000241C7302F087FB204610BD02F083FB49
:101DD0000448FAE70448F8E70448F6E70C55002001
:101DE0008C530020068000F0028000F0018000F09B
:101DF00013B5164B1868019000238DF8043002F0DB
:101E000064FB134B1C7824B102F065FB114802B04F
:101E100010BD01221A7002F05EFB0F4B1C731C7781
:101E200083F82C4083F83C4083F84C4083F85C40B6
:101E300083F86C4083F87C4004230DEB03008DF89D
:101E4000073003F03BF82046E1E700BF6CDC0200FE
:101E50000C550020038000F08C53002010B588B092
:101E60000E9C07940D9C06949DF8304005940B9CA5
:101E700004949DF8284003940024CDE90134009295
:101E80000B46024621462046FFF780FE08B010BDF3
:101E900010B588B00E9C07940D9C06949DF83040B8
:101EA00005940B9C04949DF8284003940024CDE9EC
:101EB000013400920B46024601212046FFF766FEE0
:101EC00008B010BD08B50A4B1B785BB107280BD8CA
:101ED000084B03EB00131B7B43B1002102F0E4FF2E
:101EE000002008BD0448FCE70448FAE70448F8E786
:101EF0000C5500208C530020028000F0018000F07F
:101F0000078000F008B50A4B1B785BB107280BD897
:101F1000084B03EB00131B7B43B1012102F0C4FF0C
:101F2000002008BD0448FCE70448FAE70448F8E745
:101F30000C5500208C530020028000F0018000F03E
:101F4000078000F008B50A4B1B7853B107280AD860
:101F5000084B03EB00131B7B3BB103F02DF8002073
:101F600008BD0548FCE70548FAE70548F8E700BF63
:101F70000C5500208C530020028000F0018000F0FE
:101F8000078000F00D4B1B7893B1072812D889B158
:101F90000B4B03EB00131B7B73B10A4B1A6A012333
:101FA00003FA00F010401ABF00200B700870704751
:101FB0000548704705487047054870470C55002094
:101FC0008C53002000200E40028000F0018000F0C1
:101FD000078000F00B4B1B7810B50C4663B1072847
:101FE0000CD859B1084B03EB00131B7B43B102F033
:101FF000F9FF2060002010BD0448FCE70448FAE720
:102000000448F8E70C5500208C530020028000F0B3
:10201000018000F0078000F02DE9F843174E326E82
:10202000F36E12EA030800D5FEE7154CDFF8549072
:102030000127002518EA070F16D02368B7669BB161
:10204000A16862680131A16028469847637B012B33
:102050000AD148B909EB4513197B1A7F60F3410196
:1020600060F3410219731A770135082D4FEA4707CB
:1020700004F11004DED1BDE8F88300BF00200E405B
:102080008C5300200C54002070B5094E04460125E5
:1020900004B970BD94FAA4F0B0FA80F005FA00F328
:1020A00024EA030456F82030002BF1D09847EFE7DC
:1020B00010550020054B4FF48022C3F880211A6090
:1020C0004FF48062C3F880211A60704700E100E09D
:1020D00038B504460D4602F0F8F9034B43F8245096
:1020E000BDE8384002F0F7B910550020074BD3F88F
:1020F0002804D3F81C24104020F42A5020F02A0091
:102100004004400CC3F82404FFF7BEBF00A0004009
:10211000074BD3F82804D3F81C24104020F4AA401D
:1021200020F055000004000CC3F82404FFF7ACBFF6
:1021300000A000402DE9F84F284C4FF0000A04F1B0
:10214000A00580464FF000094FF0010B237F84F873
:102150001DA06BB1D4E90023994508BF90451046F6
:1021600019460AD2B2EB080063EB0901C4E9000189
:102170002834AC42EAD1BDE8F88FE37F33B9237746
:10218000A369002BF4D084F81DB0F1E7D4E902670D
:10219000B8EB000069EB010132463B462AF0B0FD86
:1021A000B01A67EB030123696269002BC4E90001DF
:1021B0000BDD13441D2B6361E2D9461C41F100077E
:1021C0001E3BC4E900676361DAE7D31A1D2B636124
:1021D000D6D910F1FF3641F1FF37F1E76055002005
:1021E00038B5074C0025637F1BB1A369216A2846D7
:1021F00098470135042D04F12804F4D138BD00BFFF
:1022000060550020064B5A6A99690A40D20705D5E5
:1022100001221A62034A136801331360704700BF3A
:102220000020044000560020F0B5194E00214FF068
:10223000FF324FF0FF337418257F3DB1D4E90045DC
:102240009D4208BF94423CBF22462B462831A0291C
:10225000F1D1104900240C705C1C08BFB2F1FF3FA3
:102260000C4614D000279F420B496FF0640608BF4C
:102270009642086038BF32460849042502440D6280
:1022800001234A6523704B6A43F004034B62F0BD9F
:10229000605500205855002054550020002004406F
:1022A0000F4B1B7870B50546BBB102F00EF90D4916
:1022B0000023282606FB0312947F14B935B90A4C73
:1022C00007E00133042BF5D1084C02E0012191779E
:1022D0002B6002F000F9204670BD054CFBE700BF03
:1022E0005955002060550020041000F0011000F046
:1022F000061000F070B5204D2C78002C3AD1012149
:102300001E481F4E01F046FD03211E4801F09AFFB2
:1023100001211D48347101F03DFD304602F02AFFD5
:102320001A49012002F00CFF194B1A485A6A22F48C
:10233000FF6222F007025A6240F2FF721A62164AE6
:102340009C604FF00041C2F8801111605A6A42F05F
:1023500001025A622146A0222AF095FE0F4B1C7002
:102360000F4B1C700F4B1C600F4B1C600F4B1C6005
:1023700001232B70002070BD5955002000250A0054
:10238000244D002005002400A00914002D4D00203C
:10239000002004406055002000E100E0505500207E
:1023A000585500205C55002000560020045600209F
:1023B0002DE9F74F93465C4A1278074689461E4638
:1023C000002A00F0AD80032800F2AC8002F07DF816
:1023D000564A282404FB07248046A17F924629B947
:1023E00002F079F8524803B0BDE8F08FBBF1000F5E
:1023F00008D116B10C993846B047404602F06BF848
:102400000020F0E74B4A4FF4004C4FF4FA700021E3
:102410009568A6614FF47A720023ECFB0B012AF059
:102420006FFCB9F1010F02460B46C4E9022309D142
:102430004FF47A7303FB0BFB1E2303FB10B32361E2
:102440000F236361282303FB07A301304FF0010230
:1024500041F10001C3E900011A770C9A83F81F903B
:102460001A62354B1B78002BC7D1344C23680133DB
:102470001EBF236801332360314B01931A78E2B900
:10248000304B2C4E1D600423336200236FF0640236
:102490008B4208BF824238BF104628447065736A79
:1024A000019A43F004037362012313702368002B25
:1024B000A3D02368013B23609FE72368012BF5D15C
:1024C000282303FB07A30026DFF86890DFF874B029
:1024D0001E77D9F8242022F00402C9F82420DBF862
:1024E0000000281AFFF726FEFFF77AFE26B92822F9
:1024F00002FB07A2012010772846FFF795FE114B3B
:10250000D9F808501868D9F85420019BA5EB000CA5
:10251000121A187801360028C8D09445D9D2C5E7D8
:10252000094860E709485EE75955002060550020DA
:10253000031000F000200440505500205C5500209E
:102540005855002054550020061000F0021000F0ED
:102550002DE9F843264B1B7805460C46002B41D04D
:10256000032841D8002941D001F0AFFF214B282298
:1025700002FB05339A7F22B901F0ADFF1E48BDE88A
:10258000F8831A7F1AB901F0A6FF1C48F7E7D3E9D0
:1025900000671B4B9D681B4BD3F8008001F09BFF2D
:1025A0000021A5EB08008F4208BF864215D3361ADA
:1025B00067EB0107B046B9464FF47A75A8FB0523CF
:1025C00012F5804005FB09334FEAD03243F1000198
:1025D00042EA414222600020D1E74FF000084FF06C
:1025E0000009E9E70848CAE70848C8E70848C6E715
:1025F0005955002060550020031000F0051000F030
:102600000020044054550020061000F0021000F095
:10261000041000F0F8B501F058FF084D084F2C6881
:10262000BE68FFF7EFFD2B689C42F8D101F053FF25
:102630000022901944F10001F8BD00BF00560020AF
:10264000002004402DE910484FF47A74A0FB04BC2C
:102650001BF5804204FB01CC4CF10003D00B40EA97
:102660004340BDE8108800002DE9F8431A4C01F002
:102670002CFF626AA1690A4022F005015307054652
:10268000216221D5154AA768154EDFF8589001211F
:1026900011709046636A23F0040363623068381A4D
:1026A000FFF748FDFFF79CFD3846FFF7BDFD326898
:1026B000A768636DB91A9B1A99F800200AB199426C
:1026C000E8D2002388F80030FFF79CFD2846BDE8DB
:1026D000F84301F000BF00BF002004405055002027
:1026E0005455002058550020044B4FF04042DA6208
:1026F0001A6B22F040421A63704700BF00300E4050
:102700002C48F0B5002203682B4D114654592CB1CA
:102710001E68AC18002E36D1234601210832282A23
:10272000F4D101B103602549254E0B6800221446FF
:1027300095592DB11F68B518002F2BD12B460124B8
:102740000832282AF4D104B10B6000681D4B0268DE
:1027500042B3DA69007922F0FF020243DA611A6BB0
:1027600042F0804209681A630A68164BF2B1DA69CE
:10277000097922F47F4242EA0122DA611A6B42F0BF
:1027800000421A63F0BD1E792779B74284BF234601
:102790000121C3E71F7995F804C0BC453CBF2B4617
:1027A0000124CDE71A6B22F08042DBE71A6B22F09E
:1027B0000042E6E714560020245600201856002058
:1027C0004C56002000300E4008B51B4B1B48012220
:1027D0001A70002128222AF056FC282200211848CD
:1027E0002AF051FC174A184B13601849184A136015
:1027F0000A684B6DC2F30742FF2A02D0DBB2FF2BFF
:1028000001D190231922134802EB820103EBD1017D
:102810000160DB000521B3FBF1F313440E4A1360A2
:10282000FFF762FF0D4B0122C3F880211A60FFF70A
:1028300067FF002008BD00BF085600202456002076
:102840004C560020145600201C560020B081E00F8A
:10285000185600200C5600201056002000E100E021
:10286000064B186AC0B20523C000B0FBF3F0044B5E
:102870001B68181A00F3070040B2704700300E4082
:102880001056002010B5144C226B616A0A4010D516
:10289000124B1B681A682AB1002119605960FFF7B2
:1028A000DFFF90474FF00043E362BDE81040FFF7C1
:1028B00027BF5300F9D50A4B1B681A6832B10021B3
:1028C00019605960FFF7CCFF01219047024B4FF090
:1028D0008042DA62E9E700BF00300E40185600205F
:1028E00014560020FFF7CEBF38B141B1013AB2F51E
:1028F000006F044838BF0020704703487047014804
:10290000704700BF037000F0027000F00D490E4ADE
:102910000B7810B54BB9C2E90033C2E90233012488
:102920000C7042F82300002010BD002352F8231041
:102930000029F6D08142F4D00133042BF6D10348AC
:10294000F2E700BF8456002074560020027000F0A9
:1029500038B504460D4601F0B8FDA28892B222B9FE
:102960002A6001F0B8FD064838BD6388142202FBD6
:10297000034308332B6001F0AEFD0020F4E700BFF5
:102980000B7000F038B504460D4601F09EFDA3889B
:102990009BB223B92B6001F09EFD0C4838BD6388C3
:1029A000E188142202FB034308332B6063885A1C1E
:1029B00092FBF1F301FB13239BB26380A388013BDD
:1029C0009BB2A38001F087FD0020E7E70B7000F0C9
:1029D0007FB5012380F82C3090F8323093B90C4A3F
:1029E000036803920022049002924A680192012235
:1029F00000920A68016980681C33FFF749FA07B042
:102A00005DF804FB012BEAD0002380F82C30F6E7B8
:102A1000613200007FB5012380F82D3090F832300C
:102A200083B9026834320D4B039300230490029360
:102A30004B680193012300930B68C1684068FFF75E
:102A40000DFA07E0012B02D102682832EBE70023E0
:102A500080F82D3007B05DF804FB00BF612A00004C
:102A6000F7B5906A01A91446FFF772FF144B98421C
:102A700020D0019B00251D619D6001F026FD019A7B
:102A8000D668074626B1D2E9002329462046B0473A
:102A900001A9A06AFFF776FFA06A83889BB263B1A1
:102AA00001A9FFF755FF01992046FFF7B3FF38460C
:102AB00001F011FD012003B0F0BD84F82D30F6E7E0
:102AC0000B7000F0427E30235343044A1A44437F84
:102AD00003EBC2039B001868C0B270471CA01042F1
:102AE00013B51D4A002352F82340617F81420ED066
:102AF0000133042BF7D102B010BD0028FBD19DF8A3
:102B00000730002BF7D06068FFF7DCF9F3E794F8A3
:102B10003130022BEFD12046FFF7D4FF637D2075C3
:102B2000022BE8D194F82E3003F0FF02002BE2D103
:102B300002A9606801F8012DFFF724FA237D1BB17B
:102B400094F82F30002BD8D0002384F82F30606801
:102B5000FFF7D8F9CFE700BF7456002090F8323065
:102B600053B903680122DA601A69D007FCD55A6F9D
:102B700042F001025A677047012B0CD103685A6C6E
:102B80009107FCD401225A609A68D207FCD55A6D8D
:102B900042F001025A65704790F832303BB9036841
:102BA0005A6F22F001025A670222DA607047012B45
:102BB00009D103685A6C9207FCD45A6D22F00102C5
:102BC0005A6502225A60704710B50446FFF710F9A3
:102BD0000021201DFFF79AF8014608B1044810BDF6
:102BE00004F10800FFF792F80028F8D0F6E700BFDC
:102BF0000E7000F0F8B5044617460D4601F065FC6E
:102C0000A388E2889A42064605D800233B6001F07B
:102C100062FC1648F8BD2388142202FB03430833E4
:102C200005F1100C2A4603CA624518605960154622
:102C300003F10803F6D1106818602388E188142294
:102C400002FB034308333B6023885A1C92FBF1F3D9
:102C500001FB13239BB22380A38801339BB2304630
:102C6000A38001F038FC0020D4E700BF0A7000F018
:102C700073B504460D46C07DE67E002934D001239D
:102C80000422314602F0B8F801230222217F207E7F
:102C900002F0B2F894F83130022B16D10023012251
:102CA000617F607E02F0A8F800230422A07EA17F4D
:102CB00002F0A2F80123627F607E01930093114627
:102CC00002F04EF8002002B070BD032BFAD10023B1
:102CD0000122617F607E02F08FF800230422A17F31
:102CE000A07E02F089F8EDE70B460A46314602F075
:102CF00083F82B462A46217F207E02F07DF894F847
:102D00003130022B10D12B462A46617F607E02F0C3
:102D100073F82B462A46A07EA17F02F06DF8627FF1
:102D2000607E01950123C9E7032BCBD12B462A46B0
:102D3000617F607E02F060F82B462A46CFE790F86C
:102D4000323013B9036818697047012B1CD103682E
:102D50009B6803F00200DA0748BF40F00100590702
:102D600048BF40F008001A0748BF40F02000D906CD
:102D700048BF40F040009A0648BF40F080005B0624
:102D800003D540F400507047002070472DE9F3410F
:102D90000D460446002879D001F097FB012D064628
:102DA0003BD1A36A9B889BB2002B3DD06068FFF7A4
:102DB000C9F80023A06A84F82D3083889BB273B1D0
:102DC00001A9FFF7C5FD01996068364F0831FFF78B
:102DD00001F9019B1F61A06A83889BB253BB204607
:102DE000FFF7ADFF8304FAD5023D012D10D8A0688E
:102DF000FFF7A8F80023606A84F82C3083889BB220
:102E00003BBB94F83130032B02D02046FFF7C4FEC1
:102E1000304601F060FB002009E0022D38D1636AE2
:102E20009B889BB2002BDFD101F055FB1E4802B0FE
:102E3000BDE8F08101A9FFF7A5FD019BD3F80C8047
:102E4000B8F1000FC7D09B68002239462046C04722
:102E5000C1E76946FFF77CFD0099A068114F083172
:102E6000FFF7B8F8009B1F61606A83889BB2002B54
:102E7000C7D06946FFF786FD009BDD68002DF3D0C3
:102E80009B68002239462046A847EDE70748CEE771
:102E9000032DA9D1A36A9B889BB2002B86D1636ABC
:102EA00080E700BF097000F0087000F0027000F0C9
:102EB000436A9888C0B270472DE9F3410546406ADD
:102EC00084889846A4B200230E461746CDE9003305
:102ED0003CB16946FFF73CFD01A90446A868FFF72D
:102EE00079F8009971B16CB94868019BC01A3860D3
:102EF000C8F800300B6833602846FFF720FF02B0A7
:102F0000BDE8F0810021C8F8001039603160F3E7B6
:102F1000836A9888C0B270472DE9F3410546806AFC
:102F200084889846A4B200230E461746CDE90033A4
:102F30003CB16946FFF70CFD01A904466868FFF73C
:102F400049F8009971B16CB94868019BC01A3860A2
:102F5000C8F800300B6833602846FFF7F0FE02B077
:102F6000BDE8F0810021C8F8001039603160F3E756
:102F7000007D70472DE9F04104460E461746FFF7E5
:102F8000B3FC804650BB092001F0C4FA0546A26A92
:102F900093889BB213B194F82E3013B394F8322077
:102FA00022BB23681D6915F0020533D0012384F884
:102FB0003030002A3FD13744BE42206836D1036901
:102FC0009E06FCD555B994F83230002B42D12368C7
:102FD0005A6F22F002025A670822DA604046BDE8C2
:102FE000F081002DD4D0FFF717F8D0E7012A1BD1CC
:102FF00023689D6815F00205D8D1596C8807FCD468
:103000000421596099688907FCD5596D41F0020186
:103010005965CBE70421D96019698907FCD5596F37
:1030200041F002015967C1E70025BFE716F8011B0F
:1030300002F018FAC0E7012AD0D13744B74220681D
:1030400003D183681907FCD5BCE716F8011B02F011
:103050000EF8F3E7012BC1D123685A6C9207FCD418
:103060005A6D22F002025A6508225A60B6E7000043
:1030700010B50446B0B190F82E3033B990F8313025
:10308000022B0AD06068FEF71DFF94F82E30013342
:10309000DBB284F82E30002010BDFFF713FD0028AE
:1030A000F3D1EFE70048F7E7027000F010B50446EF
:1030B000D0B190F82E30CBB190F82E30012B06D144
:1030C00090F83130022B0AD06068FEF71BFF94F8AD
:1030D0002E30013BDBB284F82E30002010BDFFF70C
:1030E000F1FC0028F3D1EFE70148F7E70148F5E7E5
:1030F000027000F0057000F037B590F83150022DE5
:10310000044618D1A37F407D01229A40A37E30213E
:103110005943134B0B4410B903F1806303E00128BA
:1031200005D103F1C0631A60002003B030BD217DDA
:103130000029F6D1F0E7012DF6D1037D73B91123F3
:103140008DF80730FFF794FF2A460DF1070120465E
:10315000FFF710FF2046FFF7A9FFE5E71323EFE78E
:103160000CA0004090F83130032B05D002294175A6
:1031700018BF0175FFF7C0BF00487047057000F029
:1031800010B5044600283AD00321FFF7FFFD0021C7
:103190002046FFF7E7FF00212046FFF769FD94F87E
:1031A000323003BB23680A22DA600021206A00F073
:1031B000F1FD94F83130032B03D00021607FFEF73E
:1031C00087FF6068FEF7EEFDA068FEF7EBFDFEF7F7
:1031D000C9FD636A0020188058809880A36A18800F
:1031E0005880988010BD012BDFD1206801F02BFFA3
:1031F00023685A6C9207FCD40A225A60D5E701482A
:10320000F0E700BF027000F0F0B587B00446164644
:10321000FFF76AFB0546F0B9CDE9011604936A464B
:103220000E4B606A039601A90593FFF7E3FC054680
:1032300088B994F82C3073B92046FFF78FFC0099B9
:103240002046FFF7C5FB94F83130032B03D02575DA
:103250002046FFF751FF284607B0F0BD017000F08F
:1032600073B5506A01A91446FFF772FB334B9842BD
:103270002FD094F83200019B002836D12268116CBF
:1032800011F4007128D02E49196198604FF4007331
:10329000936401F01AF90199CD68064635B14A6880
:1032A0008B682046D31A0A680969A84701A9606A91
:1032B000FFF768FB606A8588ADB2002D2FD001A9A9
:1032C000FFF746FB01992046FFF782FB304601F0ED
:1032D00002F9012002B070BD106CC5051BD519485C
:1032E000186199604FF48073D2E7012813D12268E6
:1032F000D16A11F0800106D011491961002199604D
:1033000080235363C5E7D06A400604D50D48186191
:1033100099604023F5E700221A619A60B9E701231A
:1033200023752046FFF7E8FE94F8313084F82C50DE
:10333000032BCBD02046FFF72FFCC7E70B7000F024
:103340000D7000F00C7000F02DE9F041094F0446BB
:103350000D460FCF88B001AE0FC697E8070086E88C
:103360000700002C00F0A98245B9034E304608B092
:10337000BDE8F08180DC0200037000F034220021FF
:10338000204629F080FE2046FFF7C0FA06460028B6
:10339000ECD12B7C84F83130CB4A2B6823609342EC
:1033A00084F8320040F07B81C84B2362C84BE36055
:1033B0004FF440232361D5E906230026626216807C
:1033C0005680968084F82C60A3621E805E809E806A
:1033D0006B6803936B89ADF81430AB89ADF812308C
:1033E000AB7B8DF810300121EB7BBA4884F82D605F
:1033F00084F82F6005278DF816308DF8117000F0D5
:10340000C9FC0121B44800F0C5FC0121206A00F08C
:10341000C1FC01A928688DF8046001F0E5FF286867
:103420006A7A816F2B7ADFF8A0C221F4F85121F07B
:103430001F01114341EA032181670321416720688D
:10344000604540F05781BB4216D9981F042840F2CE
:103450006C81A3F10B00B84240F26981A3F1110025
:10346000062840F26681A3F11801062940F2638123
:103470001F2B14BFFF263E46042AE67540F25D81ED
:10348000511F042940F25B81A2F10A01052940F293
:103490005881A2F11001062940F25581A2F11701CD
:1034A000072940F252811F2A14BFFF2100212176F3
:1034B000002B58D0012B56D0022B54D0032B52D0C6
:1034C000042B50D0052B4ED0062B00F04881072B43
:1034D00000F04781082B00F04681092B00F0458160
:1034E0000A2B00F044810B2B00F04F810C2B00F0D5
:1034F0002E810D2B00F02D810E2B00F02C810F2B37
:1035000000F02B81102B00F02A81112B00F0238179
:10351000122B00F02281132B00F02181142B00F0DC
:103520002081152B00F01F81162B00F01E81172B18
:1035300000F01D81182B00F01C81192B00F01B815D
:103540001A2B00F01A811B2B00F019811C2B00F0A4
:1035500018811D2B00F017811E2B00F016811F2BE8
:103560000CBF0723FF23E376002A00F08881012A9D
:1035700000F01D81022A00F08481032A00F083817B
:10358000042A00F08281052A00F00781062A00F053
:103590000681072A00F00581082A00F00481092A23
:1035A00000F003810A2A00F072810B2A00F0718179
:1035B0000C2A00F0EC800D2A00F0EB800E2A00F0BF
:1035C000EA800F2A00F0E980102A00F0E280112A38
:1035D00000F0E180122A00F0E080132A00F0DF8082
:1035E000142A00F0DE80152A00F0DD80162A00F093
:1035F000DC80172A00F04181182A00F04081192A46
:1036000000F0D5801A2A00F03C811B2A00F03B8193
:103610001C2A00F03A811D2A00F039811E2A00F090
:1036200038811F2A14BFFF23002323776B7C637626
:10363000AB7C6377EB7CA3762B7DA37701212046BF
:10364000FFF716FB064600287FF490AE00F03DFF22
:103650002F7C032F804640F020812B682A8CDA676C
:103660005A6E42F004025A665A6F42F030025A67AC
:1036700028684FF0FF3383642B7C032B0CBF05219C
:10368000042101F081FE2B684FF44062DA6020468D
:10369000FFF79AFA0646404600F01DFF66E60F4A1D
:1036A000934206D10E4B23620E4BE3604FF450233E
:1036B00080E60D4A93427FF458AE0C4B23620C4BCC
:1036C000E3604FF4602375E600000140003204001F
:1036D00001000C004041050000350A0000040140D3
:1036E0000042040001000D000008014000520400E7
:1036F00001000E00DFF8D4C160455AD1052B7FF6DA
:10370000BBAE981F042810D9A3F10B0005280ED9D1
:10371000A3F1110006280CD9A3F1180106290AD932
:103720001F2B14BFFF260526A6E60126A4E60226C7
:10373000A2E60E46A0E63E469EE60021B7E601213F
:10374000B5E60221B3E60321B1E60521AFE6072382
:1037500009E7082307E7092305E70A2303E70B2303
:1037600001E70C23FFE60D23FDE60E23FBE60F2306
:10377000F9E60023F7E60123F5E60223F3E6032347
:10378000F1E60423EFE60523EDE60623EBE6082346
:103790004BE7092349E70A2347E70B2345E70C23B7
:1037A00043E70D2341E70E233FE70F233DE70223C5
:1037B0003BE7434988427FF4D8AD002B47D0591EE0
:1037C0000C2946D9A3F10E0106298CBFFF21052142
:1037D0000C2AE17541D9A2F10D0106293BD9A2F1CC
:1037E0001401092939D91F2A14BFFF21002121768C
:1037F000002B3ED0591E0C2931D90E2B31D00F2B66
:1038000031D0102B31D0112B31D0122B31D0132BC2
:1038100031D0142B14BFFF2307230C2AE3763AD9A7
:103820000D2A2AD00E2A2AD00F2A2AD0102A2AD0CE
:10383000112A2AD0122A2AD0132A2AD0A2F114033C
:10384000092B28D91F2A14BFFF230523EDE61946AB
:10385000BEE7FF21BCE70521C9E7FF21C7E7FF233A
:10386000DBE70023D9E70123D7E70323D5E70423C8
:10387000D3E70523D1E70623CFE70023D5E60123CD
:10388000D3E60323D1E60423CFE60523CDE60623C2
:10389000CBE60723C9E6FF23C7E6022F7FF4E8AE95
:1038A000FEF708FC607F0749FEF712FCA675267537
:1038B00067752046FFF720FCDAE6034E56E500BFA9
:1038C00000080140E12A0000027000F000040140FD
:1038D00090F83120012A10B5034610D102290ED0EC
:1038E000827D8A4201D1002010BD997511B9FFF780
:1038F000DDFBF8E70129F6D1FFF7BAFBF3E7014852
:10390000F2E700BF057000F0F0B587B00446164638
:10391000FEF7EAFF054600BBCDE9011604936A46AF
:103920000F4BA06A039601A90593FFF763F90546BB
:1039300098B994F82D3083B900F0C7FDA36A9B882D
:103940009BB2064633B100992046FFF763F8012386
:1039500084F83030304600F0BEFD284607B0F0BD98
:10396000017000F070B588B00D220021294C2A4E5C
:1039700004A829F088FB00250223012127488DF89F
:103980001010CDE9015503958DF80A3000F002FAC8
:10399000294601AA204601F08EFC4FF6FF73E36131
:1039A0008DF81250354604A9204601F031FC1C4820
:1039B00000F0D0FA9DF81230D8400133DBB20A2B68
:1039C00030608DF8123002D8164B9842EBD816486A
:1039D000164C00F0BFFA1649B1FBF0F12868154A01
:1039E0000025E1FB004500232046294629F088F9FF
:1039F000114B084A1860114B00201870936923F08E
:103A0000100393610E4B4FF40062C3F880211A60DB
:103A100008B070BD008001408856002000020400FC
:103A20004041050080841E007000020020A10700B4
:103A300000B0710B40420F008C56002090560020C1
:103A400000E100E01E4BF7B519681E4C1E4A1F4EE0
:103A50000025E0FB014520462946002329F050F9C6
:103A6000DFF86CC04FF6E85400254FF6E75E4FF0E4
:103A7000FF378D4208BF844211D380B260B1144A2F
:103A8000516A89B2536A9BB2ADF80630BDF8063070
:103A90005B1A9BB29842F5D8002003B0F0BDDCF869
:103AA000242092B2DCF824309BB2ADF80430BDF88B
:103AB00004309B1A9BB27345F4D980197941D8E739
:103AC0008856002020A1070040420F001802FFFF87
:103AD00000800140044BDA68D20604D510225A61F6
:103AE000024B01221A70704700800140905600205E
:103AF0002D4B002A70B52D4D446B08BF1D462C4B35
:103B000014BF1026002698423AD102293FD004D88B
:103B1000B9B1012921D000232DE0062931D0812916
:103B200035D00329F7D1234B1A6819681B68120C8A
:103B30001B0C03F0F00302F4FE421A43C1F30343EB
:103B400018E01D490B680A6803F4FE4302F00F02F7
:103B50001A430B6803F0F0030CE0174A136811686E
:103B600012681B0C120C02F0F00203F4FE43134324
:103B7000C1F303421343B3402C400D4A2343536324
:103B800070BD0E4B1A681B6802F00F02E2E7094A8B
:103B900013681168126803F4FE4301F00F010B4330
:103BA00002F0F002E6E700BF0080FFFFFFFF0080A9
:103BB000002000401482E00F1082E00F1882E00F16
:103BC00038B50C4602238360002289780546FFF74A
:103BD0008FFF207961786279030243EA016343EA47
:103BE0000243E27843EAC203E2790AB143F00053A8
:103BF000227A0AB143F00403A2790AB143F0020326
:103C0000627A0AB143F00103F328A27806D12AB9F7
:103C100003299CBF23F0706343F0806351B20029F5
:103C2000ACBF43EA421343F0E0032B616B69002908
:103C300023F4F21323F00703BCBF22F080021343E6
:103C4000227843EA4243E27A0AB143F480436B614B
:103C50006D0105F18445A37AAB6038BD0C4B9842E9
:103C600010D90C4B984210D9022201230A490B604B
:103C70000A49D1F8003123F0807343EA0263C1F8A6
:103C80000031704700221346F0E70122FBE700BF36
:103C90000048E8010090D0034000C84300400E40B7
:103CA0000E4B30B50E4C5B68C9B2002304EBC30267
:103CB00015798D4203D154F8335085420BD201332C
:103CC000052BF3D1032205494B6823F0407343EAE7
:103CD00002634B6030BD5279F5E700BF00000E4033
:103CE000ACDC020038B5074C41F67133256C236417
:103CF00001F02EFC0021FFF7D3FF0DB10023236458
:103D000038BD00BF00000E40044BD3F84421D20759
:103D100003D4D3F840211042FBD1704700400E403D
:103D20000C4AD2F89030516A0B4B21F0300141F02F
:103D3000100110B55162146BC0F3C31103310F2988
:103D400003EA040328BF0F21034343EA017313630B
:103D500010BD00BF00400E4000F8FF0F044A13687A
:103D6000002BFCD1034B5868C0F30140704700BFE3
:103D7000C800C64300300E4038B5054C41F67133DB
:103D8000256C2364FFF78CFF0DB10023236438BD3D
:103D900000000E40C0F30322013A38B50546092A57
:103DA00013D8DFE802F023131212051619121C2093
:103DB000104C0020C5F3043508B1FFF7A5FF04F14E
:103DC000047405EBC404A400216038BD00200A4C33
:103DD000F0E70120094CEDE71020094CEAE74FF429
:103DE0008030084CE6E70020074CE3E70020074C52
:103DF000E0E700BFB0400E40C0400E40E0400E4043
:103E0000E8400E40F0400E4050410E4000400E4051
:103E100000F00F000138072848D8DFE800F0040F51
:103E20001947232D4735244BD3F8943003F007036B
:103E3000023B052B3CD8214AD05C70471E4BD3F87F
:103E4000803003F00703013B032B33D81C4AF3E710
:103E5000194BD3F8843003F00703013B032B29D817
:103E6000184AE9E7144BD3F8883003F00703013B05
:103E7000032B1FD8144ADFE70F4B1B6F13F0010F02
:103E800014BF0920072070470B4BD3F85C3103F0B7
:103E90003003202B06D0302B06D0102B0CBF072070
:103EA00001207047042070470820704700207047A9
:103EB000052070470120704700400E409CDC020046
:103EC000A2DC0200A6DC0200A2DC020008B501466A
:103ED000FFF79EFF1B4B994211D01B4B994212D00A
:103EE0001A4B994204D11A4BD3F8800000F0070016
:103EF0000138032824D8DFE800F00A0E1612144B0C
:103F0000D3F88400F2E7124BD3F88800EEE7BDE85F
:103F1000084001F07BBBBDE8084001F07DBBBDE877
:103F2000084001F076BB01F03BFB094BD3F80031B0
:103F3000C3F300635A1C01239340B0FBF3F008BDA8
:103F40000020FCE7030020000500240002001E0002
:103F500000400E4000F47810B0F5A01F08B56CD0FA
:103F600021D8B0F5202F07D00AD8B0F5003F59D09E
:103F7000B0F5802F4BD0A8BBBDE8084001F0ECBAEB
:103F8000B0F5602F00F08380B0F5801F00F08780CF
:103F9000B0F5402F26D101F0DFFA474BD3F81431AA
:103FA000C3F304233AE0B0F5001F59D013D8B0F59D
:103FB000D01F57D0B0F5F01F3AD0B0F5B01F11D1D7
:103FC0003E48FFF783FF3C4BD3F8202102F00F025D
:103FD0000123934023E0B0F5381F38D004D8B0F562
:103FE000101F52D0002008BDB0F5401F43D0B0F5DF
:103FF000481FF7D13248FFF70BFF07284FD008289A
:1040000050D00428EED1BDE8084001F0DBBA01F041
:10401000A3FA294BD3F80C31C3F308230133B0FBC7
:10402000F3F0E0E701F098FA234BD3F80831F3E717
:104030002248BDE80840FFF749BF2248FFF746FF86
:104040001D4BD3F8303103F00303D840CBE71B48B6
:10405000FFF73CFF184BD3F82031C3F30113F4E70B
:104060001948E6E71848FFF731FF134BD3F828212A
:10407000C2F30112ACE71448FFF728FF0E4BD3F848
:104080002831C3F301231A1DA2E70E48D1E70F48D8
:10409000FFF7BEFE072802D00928A3D16CE70C4B1E
:1040A0001868A0E701F058FA034BD3F80031C3F3C6
:1040B000042303FB000096E700400E4002001E00B0
:1040C000B8003200050024000300200006000E00A6
:1040D000344D00200E4B5A6A12F0300F04D02029C4
:1040E00013D0302900D011B94FF4400200E0094A42
:1040F000D3F8901032EA0101FAD1520246BFD3F848
:10410000A000C0F38020012070474FF40002EFE7C9
:1041100000400E40FF33E13F02280AD129B1064B8F
:104120004FF48060C3F8A800596612B10220FFF76F
:10413000D1BF0120704700BF00400E40F8B50428F1
:1041400050D8DFE800F00A03116F74008026402485
:1041500006230725002951D048E04FF400764FF49C
:10416000807408230925F5E7002944D0324C636A9E
:1041700013F0300F37D1314BDB6B636ADB0705D5AA
:10418000636A23F0300343F01003636204240223C4
:104190000325294E34662A4E33449B001F68002FA6
:1041A000FCD0FAB13544AD002B68002BFCD00228BE
:1041B00018D1B9B1204E716A11F0010118D0012255
:1041C0002021FFF7A9FFD6F89C70012200210220D0
:1041D000FFF7B4FFC7F30A00FFF7A2FD34662B68B0
:1041E000002BFCD0F8BD0424022303250021D0E7D6
:1041F000FFF770FFE7E70826022303250E49012099
:104200000E6600FA03F3D1F890001842FBD1002AA1
:10421000E8D00123084A03FA05F5D2F890302B4282
:10422000FBD1DFE7012402260023254692E7202662
:104230001024042305258DE700400E4000300E4079
:104240008004F210112870B506460C4626D10429C8
:1042500012D101F0B7F90546A8B10021284600F0B7
:1042600049FB06F00F06013E072E72D8DFE806F084
:1042700023186D716B8B7196052904D1624B1D68F3
:10428000624B9D42E9D8023C0A2C62D8DFE804F078
:104290001E51434A616161616155B7000025E0E745
:1042A0005B4D013C092C54D8DFE804F06B545B53A0
:1042B000536253535351023C0A2C4AD8DFE804F0AE
:1042C000073A2C3349494949493E4100002500201D
:1042D000042401221146FFF731FFFFF703FD1DB152
:1042E0004C4A1368002BFCD14B4B4C485C67FFF7E2
:1042F00031FEFFF7B3FC01F053F90446FFF72EFD42
:1043000001462046FFF738FD1DBB28460121BDE8C8
:10431000704000F0EFBA00254148FFF79FFC0220F3
:104320000446D6E700253E48FFF798FC0124032009
:10433000CFE7002501200324CBE700250320052437
:10434000C7E70724C9E7374DABE7374DA9E7042393
:104350002B6070BD012211460020FFF7EFFE022303
:10436000F6E7012211461046FFF7E8FE0123EFE7CA
:1043700001F016F9FFF772FC2C4B01221A6003239F
:10438000E6E70023E4E7072C04D0092CE1D1224B17
:10439000012201E0204B00221A67DAE7013C072CDA
:1043A000D7D801A353F824F0FB4300005343000087
:1043B00053430000ED43000053430000534300000B
:1043C000DF430000C943000003221349D1F85C31E8
:1043D00023F0300343EA0213C1F85C31B9E701224C
:1043E00011460420FFF7AAFE0122EEE70122114642
:1043F0000220FFF7A3FE0222E7E70022E5E7FFF72E
:1044000071FC002507246FE7404D0020002D31018D
:1044100080400E40C800C64300400E4000250A0000
:104420000148E80188400E4084400E400816C84309
:1044300010B504461120FFF7EBFC012200210220F9
:10444000FFF77CFE174A217C536A23F001030229FF
:1044500008BF43F001035362134B21781960637A5C
:10446000A18843EAC123D362136BA07A217A03F0B7
:104470007F630343E08843EAC02343EAC113033167
:104480000F2928BF0F2143EA01731363A37B617BCC
:104490001B0143EA0133E17B0B43217B43EA0143E8
:1044A000536310BD00400E40A004C843EFF31080DA
:1044B00072B6704700B962B67047602383F3118803
:1044C0007047002383F311887047EFF31180602356
:1044D00083F31188704780F311887047EFF31083DE
:1044E000DB0706D4EFF311805F2894BF0020012082
:1044F00070470120704700004109054A00F01F0382
:1045000052F82100D840C04300F00100704700BFBE
:1045100000E100E010B50446EFF31083DB0733D46D
:10452000FFF7EAFF00282ED1002CA7BF04F160445A
:1045300004F5614404F00F04144BACBF94F800235D
:104540001A5D5209EFF3118313B1B2EB531F1BD263
:104550000F4C6368C3F30803ABB1103BDBB259B235
:104560000029B5BF03F00F0301F16043043B03F5DD
:104570006143B6BF1B1993F80003187E40098242BD
:1045800034BF0020012010BD0120FCE714ED00E045
:1045900000ED00E0024A1368002BFCD1704700BF19
:1045A000C800C64342EA032340F2011293422BD0D3
:1045B000B3F5817F08D2012B1DD030D3B3F5807FB6
:1045C00031D0002213461CE040F20122934222D057
:1045D00006D8B3F5007FF4D1174BD3F870310DE056
:1045E000B3F5407F23D040F201329342E9D1124B20
:1045F000D3F878310BE0104BD3F87431C3F30722B2
:10460000DBB203600A6070470B4BD3F874311A0EAB
:10461000C3F30743F5E7084BD3F87831EEE7064BD1
:10462000D3F86C31EAE7044BD3F86C31EFE7024B77
:10463000D3F87031EBE700BFB081E00F08B5FFF7AA
:10464000A9FF084B19685A68C1F30121C2F301425E
:1046500091421A688CBF42F0100222F010021A60D8
:1046600008BD00BF00300E40064B1B68DB0608D5B6
:10467000054B1B69C3F30443082B02BF034B044AD9
:104680001A60704700300E4000400E40404D002040
:10469000C0EA2101154B0228D3F8803113D003283A
:1046A00014D0012814BFDBB2C3F307231B0323F488
:1046B0007042B1B9BAB90E49CA6E22F470421343BE
:1046C000CB6601207047C3F30743EFE71B0EEDE70E
:1046D0000749D1F8E02022F470421343C1F8E030DA
:1046E000EFE7002AF4D00020704700BFB081E00F50
:1046F00000300E4038B5234B234D1B782349244806
:10470000C3F10202102393402B6145F60E03D1F84A
:104710008041C1F88031036823F0AA03DB05DB0D7B
:104720000B66FFF737FF2B6813F0100F04F001043E
:10473000054614D0D1F84031DA01FBD4154B1B6883
:104740000B61154B197805290DD1144B1868FFF72B
:1047500021FF0D4B5968C1F30141FFF70DFB0E4BD3
:104760001978052902D01120FFF76CFD2B68DB07B3
:104770005EBF064B02221A661CB1044B0022C3F82E
:10478000802138BDA556002000300E4000400E406C
:1047900094560020A05600209E560020404D002038
:1047A00010B50B4C0B4BD4F890201A601120FFF77A
:1047B0002FFB094B1870FFF7EDFE084B084A5B68AA
:1047C000C3F301431370074B22691A6010BD00BF89
:1047D00000400E40945600209E56002000300E40AF
:1047E000A5560020A056002010B5044608B1FFF7DA
:1047F000D7FFFFF723FF084A136943F0040313614F
:1048000030BF1CB1BDE81040FFF774BFFFF72CFFAD
:10481000BDE8104000F0C4BE00ED00E010B5044655
:1048200008B1FFF7BDFFFFF709FF0F4BD3F8802159
:10483000D20748BF002245F60E01C3F8801148BFD9
:10484000C3F88021094A136943F00403136130BFA0
:104850001CB1BDE81040FFF74DBFFFF705FFBDE8F5
:10486000104000F09DBE00BF00400E4000ED00E093
:104870000A4B9A69996922F4403242F4003241F4B9
:1048800040314AF6E85098609A6199619A6199615D
:104890009A6199619A6199619A61704700300E40FE
:1048A000F8B5124B124DD3F8003104460F4600F014
:1048B00053FE0646FFF76EFE6A68C2F30142944259
:1048C00013D0022C02D12146FFF756FAC4F102029E
:1048D000102393402B610FB1FFF75CFE2CB92146EA
:1048E0003046BDE8F840FFF747BAF8BD00400E403B
:1048F00000300E4038B50C4B0D46D3F8004128B9B6
:1049000000F02AFEC4F3042404FB0000074B1B78CC
:1049100029463BB1064B984204D80220BDE83840F6
:10492000FFF7BEBF0020F9E700400E40A45600206C
:10493000FF2C31010378134A002B437870B514BF64
:1049400004260026002B8378946914BF02250025D5
:10495000002B037924F03F0443EA0403C47814BF16
:1049600008210021012C08BF43F0010333432B43EE
:104970000B4393611368417923F4403343EA0143C5
:10498000136070BD00300E401C4B9A6FD107FCD4F1
:104990001B6C13F003031EBF194A012111608342EF
:1049A00003D108B9164B18607047032B00D09BB990
:1049B000431E012B10D8114B4FF40022DA629A6F7C
:1049C000D207FCD41A6C22F0030242F001021A64EE
:1049D0000A4A536A1903FCD5084A1146936FDB074C
:1049E000FCD4136C23F00303034313648B6FDB07C6
:1049F000FCD4003018BF0120D4E700BF00300E40C7
:104A0000B40AC6432DE9F04F002389B0CDE9023343
:104A1000CDE90433CDE90633A0F5E163B3F5966F34
:104A200005460191934603D9002009B0BDE8F08FF7
:104A30004D4BB0F5E16F8CBF4FF0010A4FF0000A0B
:104A4000D3F8683100F083801A0EC3F3074307924E
:104A500004934FF496694FF4E164DFF81081D8F8BD
:104A60004C70C7F301773B46524605A902A8FFF7F1
:104A700099FDD8F8E060C6F301263346524606A9F0
:104A800003A8FFF78FFD0798049A2C1B811A614336
:104A9000B1FBF9F3D1182CBF012300238842C3D303
:104AA000002BC1D1069A0398131A6343B3FBF9F3A1
:104AB00010EB030A2CBF012300235245B4D3002B73
:104AC000B2D1059B029A981A4443B4FBF9F912EB50
:104AD00009092CBF012000204B45A5D30028A3D1F4
:104AE000BBF1000F0ED0D8F85C3023F4FE4323F066
:104AF0000203B5F5E16F43EA012318BF0220034327
:104B0000C8F85C30019B63B300213846FFF7C2FD53
:104B1000002889D001213046FFF7BCFD002883D052
:104B2000124A536ED14538BFD14623F4FF73B9F111
:104B3000E70F23F0010328BF4FF0E709B5F5E16F58
:104B400018BF43F0010343EA490353666DE7C3F31B
:104B50000722DBB2079204934FF416794FF4966460
:104B60007BE7012061E700BFB081E00F00300E401D
:104B7000304B1A6FD96CC90702F0070242D5012ADF
:104B800040D9132851D9143813288CBF1023082377
:104B90002849013BCA6C180322F47F4240EA0323F0
:104BA0001343CB64244BCA6C1B88C2F30322283303
:104BB000013202EB820003EB5303B3FBF0F3C86C4A
:104BC000013B072B20F0EE6028BF072340F4801044
:104BD00040EA0363CB64194BB3F90030002B10DBC0
:104BE0002833500800EB420203EB5303B3FBF2F30C
:104BF0000A6D072B28BF072322F0700242EA031335
:104C00000B657047DB6CD90706D4012A04D8092844
:104C10000BD90A380928B8E7064BDB6C13F00103FF
:104C2000B6D0012A03D82728AFE70423B0E7002332
:104C3000AEE700BF00300E409A5600209C56002080
:104C4000054A064B1B68136F23F007031843044BF8
:104C500010671888FFF78CBF00300E408009C643EC
:104C600098560020C1884A2938B50446B0F90C503E
:104C70004ED9B1F5FA7F4DD340F6C313994294BF94
:104C80004FF000514FF040512748C36C23F0405380
:104C900023F00103002DA8BF43F001030B43C364BD
:104CA000D0F8E03043F44073C0F8E030C36E43F016
:104CB0008073C3661D4B186800B10420FFF7C0FF66
:104CC0001B4B218919801B4BB4F90C201A801A4BFD
:104CD000A0881880FFF74CFFA37BF3B1012B20D0F5
:104CE000012211466088FFF78DFE054670B10E4A1D
:104CF0006078D36B43F48063D363FFF745FEA37AF8
:104D0000A3F12002534253410C4A1360284638BD98
:104D10000021B9E74FF08051B6E7034B084A9A6586
:104D2000DEE7014B074AFAE700300E408009C64330
:104D30009A5600209C560020985600209407C6439F
:104D400077402057372110B7044AD2F8443423F073
:104D500003031843C2F84404704700BF00A000409A
:104D6000072A70B501F003014FF00F0523D8960014
:104D70001A4CB540256004F10074B0402060032057
:104D8000B04001FA06F61649086001F100710E60A4
:104D90001449114489000B609DF81030C1F880302F
:104DA000012303FA02F2104BC3F824249DF81430B7
:104DB000C1F8003370BDA2F10804A4000B4EA54059
:104DC00035600B4DA04028600320A04001FA04F498
:104DD0000849086001F100710C60D9E700A40044A3
:104DE00008A400448020851000A0004004A40044D2
:104DF00004A400460CA40044F0B54AB130261E4C71
:104E0000012546438D4034440BB304F1C064256052
:104E10003024444304F18044072904F5204419D880
:104E200065688E000F27B74025EA070502FA06F6E7
:104E30003543656052B9012202FA01F13022504334
:104E40000D4A0244A3B102F1C0621160F0BD04F149
:104E50008064DCE701F18045083DA668AD000F27BE
:104E6000AF4026EA070602FA05F53543A560E1E7FB
:104E700002F18062E9E700BF0CA00040074B4FF44D
:104E80000072C3F88020BFF34F8FBFF36F8F044BC6
:104E900004480021D9661962FEF77CBF00E100E0FA
:104EA00000200E4000550A00034B03449B0081F094
:104EB00001011960704700BFA001F11010B5044650
:104EC00001211148FEF766FFB4F8013022785BBA81
:104ED0009BB243EA02630D4A136000231362D3625C
:104EE00053634FF00043D3664FF0FF339366084A95
:104EF0004FF40071C2F88011E3785B01DBB282F8F5
:104F00000933116010BD00BF00550A0000200E409B
:104F100000E100E02DE9F041254D91F80BE091F81A
:104F20000AC00F7B0C464FF03008C3B2012608FBC5
:104F300000509E402368497BC0F880304FEA0E53F2
:104F400043EA0C4343EA475322F00302C0F88810B7
:104F5000C0F88430C0F89820AE66FFF7B6FAEB6E62
:104F60003343EB66237A13B16B6B33436B63637A22
:104F700013B1EB6A3343EB6222792B6822B1D2433F
:104F8000120262F47F42134062790AB143EA0223BB
:104F9000A2790AB123EA0203E27902B11343044A77
:104FA0001360044B1E60D663BDE8F041FFF793BA6F
:104FB00000200E4028200E4410B5C0B201248440C9
:104FC000FFF783FA054AD36E23EA0403D366044B42
:104FD0001C60BDE81040FFF77EBA00BF00200E4005
:104FE00020200E44F8B5C3B201259D400446FFF7CA
:104FF0006CFA0A4B30221E6E9F6A02FB0434D4F80E
:105000008C40FFF768FA3D4206D1C4F30A1008B994
:10501000354200D10130F8BD0020FCE700200E40F1
:10502000036CDB0702D4436C0B42FCD17047CB43CB
:105030005B0003F00A0310B541EA03020221FFF707
:10504000EFFF426010BD436C002BFCD101220264D3
:10505000EA22426040F2F9720360C3600361436177
:1050600083634263C363436583650364704710B51C
:1050700002460C469368DB06FCD540211046FFF73C
:10508000CFFF946210BD0000054B5A685B68054B6A
:1050900041F671321A649A6822F001029A607047F0
:1050A00000300E4000000E40034B9A6822F00102CF
:1050B0009A6000221A64704700000E4010B590FA02
:1050C000A0F2054C2368B2FA82F223EA0000914074
:1050D0000143216010BD00BF00500E40014B012272
:1050E0009A60704700500E40124BF0B55C68124D4C
:1050F000124E002318463768EA187F0751685A593C
:1051000008D4B2F5806F03D00DD8B2F5007F01D17D
:1051100041F48071144202D0214208BF1043083389
:10512000482BE8D1F0BDB2F5006FF1D0B2F5803F69
:10513000EDE700BF00500E40D4DC0200E841E00F74
:105140008B784A789B0143EA82030A781343CA7832
:1051500043EA02130A7943EAC2234A7943EA023353
:105160008A79043043EA42430001014A13507047F0
:1051700000200440427801790378002A827870B5D3
:1051800014BF04260026002AC27814BF102500256B
:10519000002A42794FEA023242EA012242EA03023D
:1051A000837914BF20240024002BC37942EA0343EF
:1051B00043EA0603027A43EA050314BF4FF40041B1
:1051C00000212343002A14BF4FF4003200220B4376
:1051D0001343014A136070BD002004400B4A536919
:1051E00011699B0003F03C03C1F381110B438370F1
:1051F000136903F03F0343709369D26903F0F0032E
:10520000C2F3031213430370704700BFD0FF0FE0D7
:105210002DE9F04F0C780CB9022343600023436260
:105220004B78CA7891F802B08D7A91F808A091F87D
:10523000069091F80780002B4B7A4FEA024214BF88
:105240004FF0400E4FF0000E42EA0B62002B14BFED
:105250008023002342EA0A02002DCD7A42EA892205
:1052600014BF4FF0200C4FF0000C42EA0822002D32
:105270000D7B42EA0E0214BF102700271343002DB6
:105280000D79497943EA0C0314BF082600263B43F5
:10529000002D14BF4FF4005500253343002914BFDF
:1052A0004FF0805100212B430B4303600CB10123CD
:1052B0004360BDE8F08FF0B5537814781B0643EADD
:1052C000846394792343947843EA0443D47843EA8B
:1052D0000433147943EA8423547943EA0423D479C8
:1052E000002C147A14BF4FF080470027002C547A0A
:1052F00014BF4FF000560026002C947AD27A43EA6D
:10530000027343EA070314BF102500253343002C22
:1053100001F1060114BF042400242B430901234397
:105320004350F0BD70B5054616461C4619B91448E1
:10533000FEF710FE0146202C08D001D8ECB170BD5C
:10534000402C18D0602CFAD1042200E0082206FB81
:1053500002F35A0802EB4112B2FBF3F2094B203A76
:1053600003EAC2022B6823F060032B602B681C4306
:105370002C606A61E3E70622E9E71022E7E700BF55
:1053800040410500F8FF7F00CB435B0003F00A03B8
:10539000C360C1607047000040F6AA63C36041F279
:1053A00005020023036042600C4A83604361C364CA
:1053B00082640B4A03669042436702F5806283670A
:1053C000C36704D0904202D00649884200D10365E9
:1053D00000239042836508BFC3657047F9FF010051
:1053E000000001400008014038B50C460546FFF7B3
:1053F000D3FFA37C1BB1036843F080430360E37CCD
:105400001BB1237D43F08003AB65228A637B13438A
:10541000E28913436B60D4E90112237B2846FFF72E
:1054200081FF637D1BB12B6843F480332B60A37D28
:10543000E27D1B07120502F4E00203F0E043134390
:105440002B666B6F23F030036B676A6F237E134309
:105450006B672378EB6038BD03691B06FCD5C06918
:10546000C0B2704703695B06FCD5416370470368AF
:10547000DB060FD447F231538268D20701D5013BD6
:10548000FAD1036803F001038B421EBF00F10470E0
:105490004001016070470368D90707D583689A0700
:1054A00004D48368DB07FCD40123436070474B7846
:1054B000CA78002B8B782DE9F04114BF4FF0020E13
:1054C0004FF0000E002B14BF04230023002A0A799A
:1054D00091F807800C7814BF4FF0080C4FF0000CC7
:1054E000002A4A7914BF20270027002A8A7914BF8E
:1054F00040260026002A0A7A4FEA022242EA0832AF
:1055000091F8098042EA0402CC7A897A42EA084298
:1055100042EA016242EA0E0243EA020343EA0C0352
:1055200043EA070314BF102500253343002C14BFA2
:105530004FF0004400242B43234347F2315281684B
:10554000C90701D5013AFAD10360BDE8F081000036
:105550000048704700F049020D4AD2F8943003F039
:105560000703032B11D0042B03D0022B0BD1094BC3
:1055700000E0094B1868D2F80031C3F3042301336B
:10558000B0FBF3F07047054BF4E74FF40040F2E74F
:1055900000400E403C4D0020444D0020404D002076
:1055A00008B5FFF7D9FF054BD3F80831C3F308233B
:1055B0000133B0FBF3F0024B186008BD00400E4011
:1055C000384D0020014B1868704700BF3C4D00204B
:1055D000054B1860054BD3F8943003F00703022BFA
:1055E00001D1FFF7DDBF70473C4D002000400E4069
:1055F000044B054A9A60D3F8882042F47002C3F83D
:105600008820704700ED00E0000200004FF40040E9
:1056100070474FF47A707047014B1868704700BFAD
:10562000444D002008B5064B1B689B69DB0205D57D
:10563000012803D840F202200BF0F0F8012008BD49
:105640002808E10F014B1B68588970472808E10FB3
:1056500070B51038C6B0EE2801F28186DFE810F090
:105660007B0369037F0E7F0ED109B803C3033203A6
:1056700041037F0E04047F0E7F0E30043401A30229
:10568000B9020C014C037F0E7F0EB7077F0E7F0E11
:10569000CF01FC01150C840C440C210C020C710C84
:1056A000B10C7F0E7F0EDC04620696016B050005CF
:1056B000C6054106F3057F0E7F0E7F0E7F0E7F0E1F
:1056C000A9039B05E7047F0E7F0E7F0E7F0E7F0EE2
:1056D0007F0E7F0E430187016E017F0E7F0E7F0ECE
:1056E0007F0E7F0E7F0E7F0E7F0E7F0E7F0E7F0E52
:1056F0007F0E7F0E00073B049106AB064D0462044B
:10570000C704AE047F0E9804E9067F0E8108E709FE
:10571000010AFC082009C708490A80097F0E5C0AB3
:10572000CA0B5009260A9D0A910AE208CC08800A91
:105730007F0EA301270330027F0E7F0ECA0683046B
:105740007F0E7F0E3905230DC00C420D5A0D360D0C
:105750004E0DE40CFA0CCC0C0D0DD80C7F0E7F0E08
:105760007F0E7F0E7F0E7F0E7F0E7F0E2B067F0E2D
:105770007F0EE003CE037F0EEF007F0E7F0E660DDF
:105780007F0EA00D640EE80D1E0E360EC60D7F0EA8
:10579000B80ADA0A7F0E7F0E7F0E7F0E7F0EA008FA
:1057A000030EBB08C9070408680838087F0E7F0E7F
:1057B0007F0E76072D077F0EBC07FB0751072708D2
:1057C000470B66027D0298027F0E7F0EF90A7F0E5C
:1057D000300B570B7F0E7F0E7F0E7F0EA7094A08F6
:1057E000F2035B027F0E20012C0895078907E3076F
:1057F000EF0739074507A107AC07B30BCF0BEB0B3E
:10580000DF0BA30B9E0B7F0E7F0E7F0E7F0E7F0E96
:105810002A0E7F0E830D7F0E470E580EB30DBA066B
:105820007F0E7F0E7F0E7404DD067F0E7F0E5E03FB
:10583000F2021503DD02C4027F0E11021A0712AB39
:1058400001930AAB00930CAA24ABC949012023F0B1
:10585000D5FCBDF848309DF828202499BDF83000CB
:105860001DF092FD46AAC34902F8EC0D002023F07A
:10587000C5FC012046B070BD24AB0CAABE49012076
:1058800023F0BCFC24999DF830000BF0D1FE46AA11
:10589000B84902F8D00D002023F0B0FC0120E9E760
:1058A0000CAB24AAB549012023F0A8FC9DF83010C8
:1058B000249815F053F846AAAE4902F8D00D0020FE
:1058C00023F09CFC0120D5E724A823F06DFA24A83E
:1058D00017F01CFD46AAA74902F8D00D002023F0BE
:1058E0008DFC0120C6E70CAAA249012023F086FC0A
:1058F00024A99DF830000BF099FE46AA9D4902F8B4
:10590000D00D002023F07AFC24A9082023F036FAD9
:105910009DF8980023F0FAF9BDF89A0023F006FAF2
:105920009DF89C0023F0F2F99DF89D0023F0EEF91C
:105930009DF89E0023F0EAF901209BE786230BAA3D
:105940008C498DF84830012023F058FC24A99DF89B
:105950002C000BF070FE46AA12AB02F8E80D884945
:105960000093002024AB23F049FC012082E724A807
:105970001EF0A8F946AA7F4902F8D00D002023F0B6
:105980003DFC24A823F003FC012073E724A81EF0AB
:1059900095F946AA24AB02F8D00D7A49002023F0ED
:1059A0002DFC012066E70CAA7249012023F026FC99
:1059B00024A99DF830001FF051FC46AA6D4902F859
:1059C000D00D002023F01AFCBDF8900023F0AEF9B2
:1059D0009DF8920023F09AF99DF8930023F096F930
:1059E0009DF8940023F092F99DF8950023F08EF92C
:1059F00008200DF1960123F0C1F901203AE724A90E
:105A000012A80BF0D9FD46AA12AB02F8E80D5D49C9
:105A1000002023F0F3FB24A9082023F0AFF9BDF800
:105A2000980023F083F99DF89A0023F06FF99DF810
:105A30009B0023F06BF99DF89C0023F067F9BDF8FB
:105A40009E0023F073F99DF8A00023F05FF92998D8
:105A500023F080F901200DE712AC0823214624A889
:105A60008DF830300BF0D0FD46AA0CAB02F8EC0DEF
:105A7000454900930020019424AB23F0BFFB012093
:105A8000F8E60CAA3B49012023F0B8FB24A99DF8B5
:105A9000300014F0EBFF46AA364902F8D00D002082
:105AA00023F0ACFB9DF8900023F030F99DF89100B5
:105AB00023F02CF99DF8920023F028F90120D9E673
:105AC0000CAA2C49012023F099FB24A99DF8300051
:105AD0001EF076FB46AA274902F8D00D002023F0DD
